{
  "contractName": "crowdFund",
  "abi": [
    {
      "inputs": [
        {
          "internalType": "uint256",
          "name": "",
          "type": "uint256"
        }
      ],
      "name": "donations",
      "outputs": [
        {
          "internalType": "uint256",
          "name": "fund_id",
          "type": "uint256"
        },
        {
          "internalType": "uint256",
          "name": "amount",
          "type": "uint256"
        },
        {
          "internalType": "uint256",
          "name": "amount_got",
          "type": "uint256"
        },
        {
          "internalType": "address",
          "name": "aggregator",
          "type": "address"
        },
        {
          "internalType": "string",
          "name": "title",
          "type": "string"
        },
        {
          "internalType": "string",
          "name": "details",
          "type": "string"
        }
      ],
      "stateMutability": "view",
      "type": "function",
      "constant": true
    },
    {
      "inputs": [
        {
          "internalType": "string",
          "name": "_title",
          "type": "string"
        },
        {
          "internalType": "string",
          "name": "_details",
          "type": "string"
        },
        {
          "internalType": "address",
          "name": "_address",
          "type": "address"
        },
        {
          "internalType": "uint256",
          "name": "_amount",
          "type": "uint256"
        }
      ],
      "name": "setDonations",
      "outputs": [],
      "stateMutability": "nonpayable",
      "type": "function"
    },
    {
      "inputs": [
        {
          "internalType": "uint256",
          "name": "_index",
          "type": "uint256"
        }
      ],
      "name": "getDonations",
      "outputs": [
        {
          "internalType": "string",
          "name": "title",
          "type": "string"
        },
        {
          "internalType": "string",
          "name": "details",
          "type": "string"
        },
        {
          "internalType": "uint256",
          "name": "amount",
          "type": "uint256"
        },
        {
          "internalType": "uint256",
          "name": "amount_got",
          "type": "uint256"
        }
      ],
      "stateMutability": "view",
      "type": "function",
      "constant": true
    },
    {
      "inputs": [
        {
          "internalType": "uint256",
          "name": "_index",
          "type": "uint256"
        }
      ],
      "name": "sendBal",
      "outputs": [],
      "stateMutability": "payable",
      "type": "function",
      "payable": true
    },
    {
      "inputs": [
        {
          "internalType": "uint256",
          "name": "_index",
          "type": "uint256"
        }
      ],
      "name": "getTransactions",
      "outputs": [
        {
          "internalType": "address[]",
          "name": "givers",
          "type": "address[]"
        },
        {
          "internalType": "uint256[]",
          "name": "amount_given",
          "type": "uint256[]"
        }
      ],
      "stateMutability": "view",
      "type": "function",
      "constant": true
    }
  ],
  "bytecode": "0x60806040526000805534801561001457600080fd5b50611120806100246000396000f3fe60806040526004361061004a5760003560e01c80630179b81e1461004f5780634088c6fb146100785780635742177c14610094578063596d9ce2146100d2578063f8626af814610112575b600080fd5b34801561005b57600080fd5b5061007660048036038101906100719190610bee565b610154565b005b610092600480360381019061008d9190610c8d565b6102ee565b005b3480156100a057600080fd5b506100bb60048036038101906100b69190610c8d565b610434565b6040516100c9929190610e36565b60405180910390f35b3480156100de57600080fd5b506100f960048036038101906100f49190610c8d565b610549565b6040516101099493929190610f04565b60405180910390f35b34801561011e57600080fd5b5061013960048036038101906101349190610c8d565b6106af565b60405161014b96959493929190610f66565b60405180910390f35b61015c61082b565b60005481600001818152505081816020018181525050600081604001818152505082816060019073ffffffffffffffffffffffffffffffffffffffff16908173ffffffffffffffffffffffffffffffffffffffff1681525050848160800181905250838160a00181905250600181908060018154018082558091505060019003906000526020600020906008020160009091909190915060008201518160000155602082015181600101556040820151816002015560608201518160030160006101000a81548173ffffffffffffffffffffffffffffffffffffffff021916908373ffffffffffffffffffffffffffffffffffffffff1602179055506080820151816004019080519060200190610274929190610886565b5060a0820151816005019080519060200190610291929190610886565b5060c08201518160060190805190602001906102ae92919061090c565b5060e08201518160070190805190602001906102cb929190610996565b50505060016000808282546102e09190611004565b925050819055505050505050565b60003490506000600183815481106103095761030861105a565b5b906000526020600020906008020190508060030160009054906101000a900473ffffffffffffffffffffffffffffffffffffffff1673ffffffffffffffffffffffffffffffffffffffff166108fc839081150290604051600060405180830381858888f19350505050158015610383573d6000803e3d6000fd5b50818160020160008282546103989190611004565b9250508190555080600601339080600181540180825580915050600190039060005260206000200160009091909190916101000a81548173ffffffffffffffffffffffffffffffffffffffff021916908373ffffffffffffffffffffffffffffffffffffffff16021790555080600701829080600181540180825580915050600190039060005260206000200160009091909190915055505050565b60608060006001848154811061044d5761044c61105a565b5b906000526020600020906008020190508060060181600701818054806020026020016040519081016040528092919081815260200182805480156104e657602002820191906000526020600020905b8160009054906101000a900473ffffffffffffffffffffffffffffffffffffffff1673ffffffffffffffffffffffffffffffffffffffff168152602001906001019080831161049c575b505050505091508080548060200260200160405190810160405280929190818152602001828054801561053857602002820191906000526020600020905b815481526020019060010190808311610524575b505050505090509250925050915091565b6060806000806000600186815481106105655761056461105a565b5b90600052602060002090600802019050806004018160050182600101548360020154838054610593906110b8565b80601f01602080910402602001604051908101604052809291908181526020018280546105bf906110b8565b801561060c5780601f106105e15761010080835404028352916020019161060c565b820191906000526020600020905b8154815290600101906020018083116105ef57829003601f168201915b5050505050935082805461061f906110b8565b80601f016020809104026020016040519081016040528092919081815260200182805461064b906110b8565b80156106985780601f1061066d57610100808354040283529160200191610698565b820191906000526020600020905b81548152906001019060200180831161067b57829003601f168201915b505050505092509450945094509450509193509193565b600181815481106106bf57600080fd5b90600052602060002090600802016000915090508060000154908060010154908060020154908060030160009054906101000a900473ffffffffffffffffffffffffffffffffffffffff169080600401805461071a906110b8565b80601f0160208091040260200160405190810160405280929190818152602001828054610746906110b8565b80156107935780601f1061076857610100808354040283529160200191610793565b820191906000526020600020905b81548152906001019060200180831161077657829003601f168201915b5050505050908060050180546107a8906110b8565b80601f01602080910402602001604051908101604052809291908181526020018280546107d4906110b8565b80156108215780601f106107f657610100808354040283529160200191610821565b820191906000526020600020905b81548152906001019060200180831161080457829003601f168201915b5050505050905086565b604051806101000160405280600081526020016000815260200160008152602001600073ffffffffffffffffffffffffffffffffffffffff168152602001606081526020016060815260200160608152602001606081525090565b828054610892906110b8565b90600052602060002090601f0160209004810192826108b457600085556108fb565b82601f106108cd57805160ff19168380011785556108fb565b828001600101855582156108fb579182015b828111156108fa5782518255916020019190600101906108df565b5b50905061090891906109e3565b5090565b828054828255906000526020600020908101928215610985579160200282015b828111156109845782518260006101000a81548173ffffffffffffffffffffffffffffffffffffffff021916908373ffffffffffffffffffffffffffffffffffffffff1602179055509160200191906001019061092c565b5b50905061099291906109e3565b5090565b8280548282559060005260206000209081019282156109d2579160200282015b828111156109d15782518255916020019190600101906109b6565b5b5090506109df91906109e3565b5090565b5b808211156109fc5760008160009055506001016109e4565b5090565b6000604051905090565b600080fd5b600080fd5b600080fd5b600080fd5b6000601f19601f8301169050919050565b7f4e487b7100000000000000000000000000000000000000000000000000000000600052604160045260246000fd5b610a6782610a1e565b810181811067ffffffffffffffff82111715610a8657610a85610a2f565b5b80604052505050565b6000610a99610a00565b9050610aa58282610a5e565b919050565b600067ffffffffffffffff821115610ac557610ac4610a2f565b5b610ace82610a1e565b9050602081019050919050565b82818337600083830152505050565b6000610afd610af884610aaa565b610a8f565b905082815260208101848484011115610b1957610b18610a19565b5b610b24848285610adb565b509392505050565b600082601f830112610b4157610b40610a14565b5b8135610b51848260208601610aea565b91505092915050565b600073ffffffffffffffffffffffffffffffffffffffff82169050919050565b6000610b8582610b5a565b9050919050565b610b9581610b7a565b8114610ba057600080fd5b50565b600081359050610bb281610b8c565b92915050565b6000819050919050565b610bcb81610bb8565b8114610bd657600080fd5b50565b600081359050610be881610bc2565b92915050565b60008060008060808587031215610c0857610c07610a0a565b5b600085013567ffffffffffffffff811115610c2657610c25610a0f565b5b610c3287828801610b2c565b945050602085013567ffffffffffffffff811115610c5357610c52610a0f565b5b610c5f87828801610b2c565b9350506040610c7087828801610ba3565b9250506060610c8187828801610bd9565b91505092959194509250565b600060208284031215610ca357610ca2610a0a565b5b6000610cb184828501610bd9565b91505092915050565b600081519050919050565b600082825260208201905092915050565b6000819050602082019050919050565b610cef81610b7a565b82525050565b6000610d018383610ce6565b60208301905092915050565b6000602082019050919050565b6000610d2582610cba565b610d2f8185610cc5565b9350610d3a83610cd6565b8060005b83811015610d6b578151610d528882610cf5565b9750610d5d83610d0d565b925050600181019050610d3e565b5085935050505092915050565b600081519050919050565b600082825260208201905092915050565b6000819050602082019050919050565b610dad81610bb8565b82525050565b6000610dbf8383610da4565b60208301905092915050565b6000602082019050919050565b6000610de382610d78565b610ded8185610d83565b9350610df883610d94565b8060005b83811015610e29578151610e108882610db3565b9750610e1b83610dcb565b925050600181019050610dfc565b5085935050505092915050565b60006040820190508181036000830152610e508185610d1a565b90508181036020830152610e648184610dd8565b90509392505050565b600081519050919050565b600082825260208201905092915050565b60005b83811015610ea7578082015181840152602081019050610e8c565b83811115610eb6576000848401525b50505050565b6000610ec782610e6d565b610ed18185610e78565b9350610ee1818560208601610e89565b610eea81610a1e565b840191505092915050565b610efe81610bb8565b82525050565b60006080820190508181036000830152610f1e8187610ebc565b90508181036020830152610f328186610ebc565b9050610f416040830185610ef5565b610f4e6060830184610ef5565b95945050505050565b610f6081610b7a565b82525050565b600060c082019050610f7b6000830189610ef5565b610f886020830188610ef5565b610f956040830187610ef5565b610fa26060830186610f57565b8181036080830152610fb48185610ebc565b905081810360a0830152610fc88184610ebc565b9050979650505050505050565b7f4e487b7100000000000000000000000000000000000000000000000000000000600052601160045260246000fd5b600061100f82610bb8565b915061101a83610bb8565b9250827fffffffffffffffffffffffffffffffffffffffffffffffffffffffffffffffff0382111561104f5761104e610fd5565b5b828201905092915050565b7f4e487b7100000000000000000000000000000000000000000000000000000000600052603260045260246000fd5b7f4e487b7100000000000000000000000000000000000000000000000000000000600052602260045260246000fd5b600060028204905060018216806110d057607f821691505b602082108114156110e4576110e3611089565b5b5091905056fea26469706673582212203c572c2caa2a5e6a61a8e7f39ba6a823067079a2ab05c8891b402510d7a6a43e64736f6c634300080b0033",
  "immutableReferences": {},
  "source": "// SPDX-License-Identifier: MIT\r\npragma solidity >=0.4.22 <0.9.0;\r\n\r\ncontract crowdFund{\r\n    uint id = 0;\r\n    struct donation{\r\n        uint fund_id;\r\n        uint amount;\r\n        uint amount_got;\r\n        address aggregator;\r\n        string title;\r\n        string details;\r\n        address[] givers;\r\n        uint[] amount_given;\r\n    }\r\n    donation[] public donations;\r\n\r\n    function setDonations(string memory _title, string memory _details, address _address, uint _amount) public {\r\n        donation memory Donation;\r\n        Donation.fund_id = id;\r\n        Donation.amount = _amount;\r\n        Donation.amount_got = 0;\r\n        Donation.aggregator = _address;\r\n        Donation.title = _title;\r\n        Donation.details = _details;\r\n        donations.push(Donation);\r\n        id+=1;\r\n    }\r\n\r\n    function getDonations(uint _index) public view returns (string memory title, string memory details, uint amount,uint amount_got) {\r\n        donation storage Donation = donations[_index];\r\n        return (Donation.title, Donation.details , Donation.amount, Donation.amount_got);\r\n    }\r\n\r\n    function sendBal(uint _index) payable public {\r\n        uint amount = msg.value;\r\n        donation storage Donation = donations[_index];\r\n        payable(Donation.aggregator).transfer(amount);\r\n        Donation.amount_got+=amount;\r\n        Donation.givers.push(msg.sender);\r\n        Donation.amount_given.push(amount);\r\n    }\r\n\r\n    function getTransactions(uint _index) public view returns(address[] memory givers, uint[] memory amount_given){\r\n        donation storage Donation = donations[_index];\r\n        return (Donation.givers, Donation.amount_given);\r\n    }\r\n\r\n\r\n}",
  "sourcePath": "D:\\college\\projects\\crowdfund solidity web3\\contracts\\crowdFund.sol",
  "compiler": {
    "name": "solc",
    "version": "0.8.11+commit.d7f03943.Emscripten.clang"
  },
  "schemaVersion": "3.4.4",
  "updatedAt": "2022-01-31T18:12:53.100Z",
  "networkType": "ethereum",
  "devdoc": {
    "kind": "dev",
    "methods": {},
    "version": 1
  },
  "userdoc": {
    "kind": "user",
    "methods": {},
    "version": 1
  }
}