{
  "contractName": "crowdFund",
  "abi": [
    {
      "inputs": [
        {
          "internalType": "uint256",
          "name": "",
          "type": "uint256"
        }
      ],
      "name": "donations",
      "outputs": [
        {
          "internalType": "uint256",
          "name": "fund_id",
          "type": "uint256"
        },
        {
          "internalType": "uint256",
          "name": "amount",
          "type": "uint256"
        },
        {
          "internalType": "uint256",
          "name": "amount_got",
          "type": "uint256"
        },
        {
          "internalType": "address",
          "name": "aggregator",
          "type": "address"
        },
        {
          "internalType": "string",
          "name": "title",
          "type": "string"
        },
        {
          "internalType": "string",
          "name": "url",
          "type": "string"
        },
        {
          "internalType": "string",
          "name": "details",
          "type": "string"
        }
      ],
      "stateMutability": "view",
      "type": "function"
    },
    {
      "inputs": [
        {
          "internalType": "string",
          "name": "_title",
          "type": "string"
        },
        {
          "internalType": "string",
          "name": "_url",
          "type": "string"
        },
        {
          "internalType": "string",
          "name": "_details",
          "type": "string"
        },
        {
          "internalType": "address",
          "name": "_address",
          "type": "address"
        },
        {
          "internalType": "uint256",
          "name": "_amount",
          "type": "uint256"
        }
      ],
      "name": "setDonations",
      "outputs": [],
      "stateMutability": "nonpayable",
      "type": "function"
    },
    {
      "inputs": [
        {
          "internalType": "uint256",
          "name": "_index",
          "type": "uint256"
        }
      ],
      "name": "getDonations",
      "outputs": [
        {
          "internalType": "string",
          "name": "title",
          "type": "string"
        },
        {
          "internalType": "string",
          "name": "url",
          "type": "string"
        },
        {
          "internalType": "string",
          "name": "details",
          "type": "string"
        },
        {
          "internalType": "uint256",
          "name": "amount",
          "type": "uint256"
        },
        {
          "internalType": "uint256",
          "name": "amount_got",
          "type": "uint256"
        }
      ],
      "stateMutability": "view",
      "type": "function"
    },
    {
      "inputs": [
        {
          "internalType": "uint256",
          "name": "_index",
          "type": "uint256"
        }
      ],
      "name": "sendBal",
      "outputs": [],
      "stateMutability": "payable",
      "type": "function"
    },
    {
      "inputs": [
        {
          "internalType": "uint256",
          "name": "_index",
          "type": "uint256"
        }
      ],
      "name": "getTransactions",
      "outputs": [
        {
          "internalType": "address[]",
          "name": "givers",
          "type": "address[]"
        },
        {
          "internalType": "uint256[]",
          "name": "amount_given",
          "type": "uint256[]"
        },
        {
          "internalType": "uint256[]",
          "name": "timestamp",
          "type": "uint256[]"
        }
      ],
      "stateMutability": "view",
      "type": "function"
    }
  ],
  "bytecode": "0x60806040526000805534801561001457600080fd5b5061138b806100246000396000f3fe60806040526004361061004a5760003560e01c80634088c6fb1461004f5780635742177c1461006b578063596d9ce2146100aa5780639b5c1bda146100eb578063f8626af814610114575b600080fd5b61006960048036038101906100649190610c46565b610157565b005b34801561007757600080fd5b50610092600480360381019061008d9190610c46565b6102c2565b6040516100a193929190610e21565b60405180910390f35b3480156100b657600080fd5b506100d160048036038101906100cc9190610c46565b610433565b6040516100e2959493929190610f15565b60405180910390f35b3480156100f757600080fd5b50610112600480360381019061010d91906110de565b61062f565b005b34801561012057600080fd5b5061013b60048036038101906101369190610c46565b61080f565b60405161014e97969594939291906111bc565b60405180910390f35b60006001828154811061016d5761016c611240565b5b90600052602060002090600a020190508060030160009054906101000a900473ffffffffffffffffffffffffffffffffffffffff1673ffffffffffffffffffffffffffffffffffffffff166108fc349081150290604051600060405180830381858888f193505050501580156101e7573d6000803e3d6000fd5b50348160020160008282546101fc919061129e565b9250508190555080600701339080600181540180825580915050600190039060005260206000200160009091909190916101000a81548173ffffffffffffffffffffffffffffffffffffffff021916908373ffffffffffffffffffffffffffffffffffffffff16021790555080600801349080600181540180825580915050600190039060005260206000200160009091909190915055806009014290806001815401808255809150506001900390600052602060002001600090919091909150555050565b60608060606000600185815481106102dd576102dc611240565b5b90600052602060002090600a020190508060070181600801826009018280548060200260200160405190810160405280929190818152602001828054801561037a57602002820191906000526020600020905b8160009054906101000a900473ffffffffffffffffffffffffffffffffffffffff1673ffffffffffffffffffffffffffffffffffffffff1681526020019060010190808311610330575b50505050509250818054806020026020016040519081016040528092919081815260200182805480156103cc57602002820191906000526020600020905b8154815260200190600101908083116103b8575b505050505091508080548060200260200160405190810160405280929190818152602001828054801561041e57602002820191906000526020600020905b81548152602001906001019080831161040a575b50505050509050935093509350509193909250565b606080606060008060006001878154811061045157610450611240565b5b90600052602060002090600a020190508060040181600501826006018360010154846002015484805461048390611323565b80601f01602080910402602001604051908101604052809291908181526020018280546104af90611323565b80156104fc5780601f106104d1576101008083540402835291602001916104fc565b820191906000526020600020905b8154815290600101906020018083116104df57829003601f168201915b5050505050945083805461050f90611323565b80601f016020809104026020016040519081016040528092919081815260200182805461053b90611323565b80156105885780601f1061055d57610100808354040283529160200191610588565b820191906000526020600020905b81548152906001019060200180831161056b57829003601f168201915b5050505050935082805461059b90611323565b80601f01602080910402602001604051908101604052809291908181526020018280546105c790611323565b80156106145780601f106105e957610100808354040283529160200191610614565b820191906000526020600020905b8154815290600101906020018083116105f757829003601f168201915b50505050509250955095509550955095505091939590929450565b610637610a19565b60005481600001818152505081816020018181525050600081604001818152505082816060019073ffffffffffffffffffffffffffffffffffffffff16908173ffffffffffffffffffffffffffffffffffffffff1681525050858160800181905250848160a00181905250838160c0018190525060018190806001815401808255809150506001900390600052602060002090600a020160009091909190915060008201518160000155602082015181600101556040820151816002015560608201518160030160006101000a81548173ffffffffffffffffffffffffffffffffffffffff021916908373ffffffffffffffffffffffffffffffffffffffff1602179055506080820151816004019080519060200190610758929190610a82565b5060a0820151816005019080519060200190610775929190610a82565b5060c0820151816006019080519060200190610792929190610a82565b5060e08201518160070190805190602001906107af929190610b08565b506101008201518160080190805190602001906107cd929190610b92565b506101208201518160090190805190602001906107eb929190610b92565b5050506001600080828254610800919061129e565b92505081905550505050505050565b6001818154811061081f57600080fd5b90600052602060002090600a02016000915090508060000154908060010154908060020154908060030160009054906101000a900473ffffffffffffffffffffffffffffffffffffffff169080600401805461087a90611323565b80601f01602080910402602001604051908101604052809291908181526020018280546108a690611323565b80156108f35780601f106108c8576101008083540402835291602001916108f3565b820191906000526020600020905b8154815290600101906020018083116108d657829003601f168201915b50505050509080600501805461090890611323565b80601f016020809104026020016040519081016040528092919081815260200182805461093490611323565b80156109815780601f1061095657610100808354040283529160200191610981565b820191906000526020600020905b81548152906001019060200180831161096457829003601f168201915b50505050509080600601805461099690611323565b80601f01602080910402602001604051908101604052809291908181526020018280546109c290611323565b8015610a0f5780601f106109e457610100808354040283529160200191610a0f565b820191906000526020600020905b8154815290600101906020018083116109f257829003601f168201915b5050505050905087565b604051806101400160405280600081526020016000815260200160008152602001600073ffffffffffffffffffffffffffffffffffffffff1681526020016060815260200160608152602001606081526020016060815260200160608152602001606081525090565b828054610a8e90611323565b90600052602060002090601f016020900481019282610ab05760008555610af7565b82601f10610ac957805160ff1916838001178555610af7565b82800160010185558215610af7579182015b82811115610af6578251825591602001919060010190610adb565b5b509050610b049190610bdf565b5090565b828054828255906000526020600020908101928215610b81579160200282015b82811115610b805782518260006101000a81548173ffffffffffffffffffffffffffffffffffffffff021916908373ffffffffffffffffffffffffffffffffffffffff16021790555091602001919060010190610b28565b5b509050610b8e9190610bdf565b5090565b828054828255906000526020600020908101928215610bce579160200282015b82811115610bcd578251825591602001919060010190610bb2565b5b509050610bdb9190610bdf565b5090565b5b80821115610bf8576000816000905550600101610be0565b5090565b6000604051905090565b600080fd5b600080fd5b6000819050919050565b610c2381610c10565b8114610c2e57600080fd5b50565b600081359050610c4081610c1a565b92915050565b600060208284031215610c5c57610c5b610c06565b5b6000610c6a84828501610c31565b91505092915050565b600081519050919050565b600082825260208201905092915050565b6000819050602082019050919050565b600073ffffffffffffffffffffffffffffffffffffffff82169050919050565b6000610cca82610c9f565b9050919050565b610cda81610cbf565b82525050565b6000610cec8383610cd1565b60208301905092915050565b6000602082019050919050565b6000610d1082610c73565b610d1a8185610c7e565b9350610d2583610c8f565b8060005b83811015610d56578151610d3d8882610ce0565b9750610d4883610cf8565b925050600181019050610d29565b5085935050505092915050565b600081519050919050565b600082825260208201905092915050565b6000819050602082019050919050565b610d9881610c10565b82525050565b6000610daa8383610d8f565b60208301905092915050565b6000602082019050919050565b6000610dce82610d63565b610dd88185610d6e565b9350610de383610d7f565b8060005b83811015610e14578151610dfb8882610d9e565b9750610e0683610db6565b925050600181019050610de7565b5085935050505092915050565b60006060820190508181036000830152610e3b8186610d05565b90508181036020830152610e4f8185610dc3565b90508181036040830152610e638184610dc3565b9050949350505050565b600081519050919050565b600082825260208201905092915050565b60005b83811015610ea7578082015181840152602081019050610e8c565b83811115610eb6576000848401525b50505050565b6000601f19601f8301169050919050565b6000610ed882610e6d565b610ee28185610e78565b9350610ef2818560208601610e89565b610efb81610ebc565b840191505092915050565b610f0f81610c10565b82525050565b600060a0820190508181036000830152610f2f8188610ecd565b90508181036020830152610f438187610ecd565b90508181036040830152610f578186610ecd565b9050610f666060830185610f06565b610f736080830184610f06565b9695505050505050565b600080fd5b600080fd5b7f4e487b7100000000000000000000000000000000000000000000000000000000600052604160045260246000fd5b610fbf82610ebc565b810181811067ffffffffffffffff82111715610fde57610fdd610f87565b5b80604052505050565b6000610ff1610bfc565b9050610ffd8282610fb6565b919050565b600067ffffffffffffffff82111561101d5761101c610f87565b5b61102682610ebc565b9050602081019050919050565b82818337600083830152505050565b600061105561105084611002565b610fe7565b90508281526020810184848401111561107157611070610f82565b5b61107c848285611033565b509392505050565b600082601f83011261109957611098610f7d565b5b81356110a9848260208601611042565b91505092915050565b6110bb81610cbf565b81146110c657600080fd5b50565b6000813590506110d8816110b2565b92915050565b600080600080600060a086880312156110fa576110f9610c06565b5b600086013567ffffffffffffffff81111561111857611117610c0b565b5b61112488828901611084565b955050602086013567ffffffffffffffff81111561114557611144610c0b565b5b61115188828901611084565b945050604086013567ffffffffffffffff81111561117257611171610c0b565b5b61117e88828901611084565b935050606061118f888289016110c9565b92505060806111a088828901610c31565b9150509295509295909350565b6111b681610cbf565b82525050565b600060e0820190506111d1600083018a610f06565b6111de6020830189610f06565b6111eb6040830188610f06565b6111f860608301876111ad565b818103608083015261120a8186610ecd565b905081810360a083015261121e8185610ecd565b905081810360c08301526112328184610ecd565b905098975050505050505050565b7f4e487b7100000000000000000000000000000000000000000000000000000000600052603260045260246000fd5b7f4e487b7100000000000000000000000000000000000000000000000000000000600052601160045260246000fd5b60006112a982610c10565b91506112b483610c10565b9250827fffffffffffffffffffffffffffffffffffffffffffffffffffffffffffffffff038211156112e9576112e861126f565b5b828201905092915050565b7f4e487b7100000000000000000000000000000000000000000000000000000000600052602260045260246000fd5b6000600282049050600182168061133b57607f821691505b6020821081141561134f5761134e6112f4565b5b5091905056fea264697066735822122014582c21efd818f8697c6ea0f3ffad699f014420abf86e30a55aeb4394932cd164736f6c634300080b0033",
  "immutableReferences": {},
  "source": "// SPDX-License-Identifier: MIT\r\npragma solidity >=0.4.22 <0.9.0;\r\n\r\ncontract crowdFund{\r\n    uint id = 0;\r\n    struct donation{\r\n        uint fund_id;\r\n        uint amount;\r\n        uint amount_got;\r\n        address aggregator;\r\n        string title;\r\n        string url;\r\n        string details;\r\n        address[] givers;\r\n        uint[] amount_given;\r\n        uint256[] timestamp;\r\n    }\r\n    donation[] public donations;\r\n\r\n    function setDonations(string memory _title, string memory _url, string memory _details, address _address, uint _amount) public {\r\n        donation memory Donation;\r\n        Donation.fund_id = id;\r\n        Donation.amount = _amount;\r\n        Donation.amount_got = 0;\r\n        Donation.aggregator = _address;\r\n        Donation.title = _title;\r\n        Donation.url = _url;\r\n        Donation.details = _details;\r\n        donations.push(Donation);\r\n        id+=1;\r\n    }\r\n\r\n    function getDonations(uint _index) public view returns (string memory title, string memory url, string memory details, uint amount,uint amount_got) {\r\n        donation storage Donation = donations[_index];\r\n        return (Donation.title, Donation.url, Donation.details , Donation.amount, Donation.amount_got);\r\n    }\r\n\r\n    function sendBal(uint _index) public payable {\r\n        donation storage Donation = donations[_index];\r\n        payable(Donation.aggregator).transfer(msg.value);\r\n        Donation.amount_got+=msg.value;\r\n        Donation.givers.push(msg.sender);\r\n        Donation.amount_given.push(msg.value);\r\n        Donation.timestamp.push(block.timestamp);\r\n    }\r\n\r\n    function getTransactions(uint _index) public view returns(address[] memory givers, uint[] memory amount_given, uint256[] memory timestamp){\r\n        donation storage Donation = donations[_index];\r\n        return (Donation.givers, Donation.amount_given, Donation.timestamp);\r\n    }\r\n\r\n\r\n}",
  "sourcePath": "D:\\college\\projects\\crowdfund solidity web3\\backend\\contracts\\crowdFund.sol",
  "compiler": {
    "name": "solc",
    "version": "0.8.11+commit.d7f03943.Emscripten.clang"
  },
  "schemaVersion": "3.4.4",
  "updatedAt": "2022-02-13T08:04:38.700Z",
  "devdoc": {
    "kind": "dev",
    "methods": {},
    "version": 1
  },
  "userdoc": {
    "kind": "user",
    "methods": {},
    "version": 1
  }
}