{
  "contractName": "crowdFund",
  "abi": [
    {
      "inputs": [
        {
          "internalType": "uint256",
          "name": "",
          "type": "uint256"
        }
      ],
      "name": "donations",
      "outputs": [
        {
          "internalType": "uint256",
          "name": "fund_id",
          "type": "uint256"
        },
        {
          "internalType": "uint256",
          "name": "amount",
          "type": "uint256"
        },
        {
          "internalType": "uint256",
          "name": "amount_got",
          "type": "uint256"
        },
        {
          "internalType": "address",
          "name": "aggregator",
          "type": "address"
        },
        {
          "internalType": "string",
          "name": "title",
          "type": "string"
        },
        {
          "internalType": "string",
          "name": "details",
          "type": "string"
        }
      ],
      "stateMutability": "view",
      "type": "function",
      "constant": true
    },
    {
      "inputs": [
        {
          "internalType": "uint256",
          "name": "",
          "type": "uint256"
        }
      ],
      "name": "transactions",
      "outputs": [
        {
          "internalType": "uint256",
          "name": "fund_id",
          "type": "uint256"
        },
        {
          "internalType": "address",
          "name": "giver",
          "type": "address"
        },
        {
          "internalType": "uint256",
          "name": "amount",
          "type": "uint256"
        }
      ],
      "stateMutability": "view",
      "type": "function",
      "constant": true
    },
    {
      "inputs": [
        {
          "internalType": "string",
          "name": "_title",
          "type": "string"
        },
        {
          "internalType": "string",
          "name": "_details",
          "type": "string"
        },
        {
          "internalType": "address",
          "name": "_address",
          "type": "address"
        },
        {
          "internalType": "uint256",
          "name": "_amount",
          "type": "uint256"
        }
      ],
      "name": "setDonations",
      "outputs": [],
      "stateMutability": "nonpayable",
      "type": "function"
    },
    {
      "inputs": [
        {
          "internalType": "uint256",
          "name": "_index",
          "type": "uint256"
        }
      ],
      "name": "getDonations",
      "outputs": [
        {
          "internalType": "string",
          "name": "title",
          "type": "string"
        },
        {
          "internalType": "string",
          "name": "details",
          "type": "string"
        },
        {
          "internalType": "uint256",
          "name": "amount",
          "type": "uint256"
        },
        {
          "internalType": "uint256",
          "name": "amount_got",
          "type": "uint256"
        }
      ],
      "stateMutability": "view",
      "type": "function",
      "constant": true
    },
    {
      "inputs": [
        {
          "internalType": "uint256",
          "name": "_index",
          "type": "uint256"
        },
        {
          "internalType": "uint256",
          "name": "_amount",
          "type": "uint256"
        }
      ],
      "name": "sendDonations",
      "outputs": [],
      "stateMutability": "nonpayable",
      "type": "function"
    }
  ],
  "bytecode": "0x60806040526000805534801561001457600080fd5b50610ea2806100246000396000f3fe608060405234801561001057600080fd5b50600436106100575760003560e01c80630179b81e1461005c578063596d9ce214610078578063658155ff146100ab5780639ace38c2146100c7578063f8626af8146100f9575b600080fd5b61007660048036038101906100719190610a78565b61012e565b005b610092600480360381019061008d9190610b17565b61029a565b6040516100a29493929190610bdb565b60405180910390f35b6100c560048036038101906100c09190610c2e565b61040b565b005b6100e160048036038101906100dc9190610b17565b61058e565b6040516100f093929190610c7d565b60405180910390f35b610113600480360381019061010e9190610b17565b6105e8565b60405161012596959493929190610cb4565b60405180910390f35b610136610764565b60016000546101459190610d52565b81600001818152505081816020018181525050600081604001818152505082816060019073ffffffffffffffffffffffffffffffffffffffff16908173ffffffffffffffffffffffffffffffffffffffff1681525050848160800181905250838160a00181905250600181908060018154018082558091505060019003906000526020600020906006020160009091909190915060008201518160000155602082015181600101556040820151816002015560608201518160030160006101000a81548173ffffffffffffffffffffffffffffffffffffffff021916908373ffffffffffffffffffffffffffffffffffffffff160217905550608082015181600401908051906020019061025a9291906107b0565b5060a08201518160050190805190602001906102779291906107b0565b505050600160008082825461028c9190610d52565b925050819055505050505050565b6060806000806000600180876102b09190610da8565b815481106102c1576102c0610ddc565b5b906000526020600020906006020190508060040181600501826001015483600201548380546102ef90610e3a565b80601f016020809104026020016040519081016040528092919081815260200182805461031b90610e3a565b80156103685780601f1061033d57610100808354040283529160200191610368565b820191906000526020600020905b81548152906001019060200180831161034b57829003601f168201915b5050505050935082805461037b90610e3a565b80601f01602080910402602001604051908101604052809291908181526020018280546103a790610e3a565b80156103f45780601f106103c9576101008083540402835291602001916103f4565b820191906000526020600020905b8154815290600101906020018083116103d757829003601f168201915b505050505092509450945094509450509193509193565b60006001808461041b9190610da8565b8154811061042c5761042b610ddc565b5b906000526020600020906006020190508060030160009054906101000a900473ffffffffffffffffffffffffffffffffffffffff1673ffffffffffffffffffffffffffffffffffffffff166108fc839081150290604051600060405180830381858888f193505050501580156104a6573d6000803e3d6000fd5b506104af610836565b816000015481600001818152505033816020019073ffffffffffffffffffffffffffffffffffffffff16908173ffffffffffffffffffffffffffffffffffffffff16815250508281604001818152505060028190806001815401808255809150506001900390600052602060002090600302016000909190919091506000820151816000015560208201518160010160006101000a81548173ffffffffffffffffffffffffffffffffffffffff021916908373ffffffffffffffffffffffffffffffffffffffff16021790555060408201518160020155505050505050565b6002818154811061059e57600080fd5b90600052602060002090600302016000915090508060000154908060010160009054906101000a900473ffffffffffffffffffffffffffffffffffffffff16908060020154905083565b600181815481106105f857600080fd5b90600052602060002090600602016000915090508060000154908060010154908060020154908060030160009054906101000a900473ffffffffffffffffffffffffffffffffffffffff169080600401805461065390610e3a565b80601f016020809104026020016040519081016040528092919081815260200182805461067f90610e3a565b80156106cc5780601f106106a1576101008083540402835291602001916106cc565b820191906000526020600020905b8154815290600101906020018083116106af57829003601f168201915b5050505050908060050180546106e190610e3a565b80601f016020809104026020016040519081016040528092919081815260200182805461070d90610e3a565b801561075a5780601f1061072f5761010080835404028352916020019161075a565b820191906000526020600020905b81548152906001019060200180831161073d57829003601f168201915b5050505050905086565b6040518060c00160405280600081526020016000815260200160008152602001600073ffffffffffffffffffffffffffffffffffffffff16815260200160608152602001606081525090565b8280546107bc90610e3a565b90600052602060002090601f0160209004810192826107de5760008555610825565b82601f106107f757805160ff1916838001178555610825565b82800160010185558215610825579182015b82811115610824578251825591602001919060010190610809565b5b509050610832919061086d565b5090565b604051806060016040528060008152602001600073ffffffffffffffffffffffffffffffffffffffff168152602001600081525090565b5b8082111561088657600081600090555060010161086e565b5090565b6000604051905090565b600080fd5b600080fd5b600080fd5b600080fd5b6000601f19601f8301169050919050565b7f4e487b7100000000000000000000000000000000000000000000000000000000600052604160045260246000fd5b6108f1826108a8565b810181811067ffffffffffffffff821117156109105761090f6108b9565b5b80604052505050565b600061092361088a565b905061092f82826108e8565b919050565b600067ffffffffffffffff82111561094f5761094e6108b9565b5b610958826108a8565b9050602081019050919050565b82818337600083830152505050565b600061098761098284610934565b610919565b9050828152602081018484840111156109a3576109a26108a3565b5b6109ae848285610965565b509392505050565b600082601f8301126109cb576109ca61089e565b5b81356109db848260208601610974565b91505092915050565b600073ffffffffffffffffffffffffffffffffffffffff82169050919050565b6000610a0f826109e4565b9050919050565b610a1f81610a04565b8114610a2a57600080fd5b50565b600081359050610a3c81610a16565b92915050565b6000819050919050565b610a5581610a42565b8114610a6057600080fd5b50565b600081359050610a7281610a4c565b92915050565b60008060008060808587031215610a9257610a91610894565b5b600085013567ffffffffffffffff811115610ab057610aaf610899565b5b610abc878288016109b6565b945050602085013567ffffffffffffffff811115610add57610adc610899565b5b610ae9878288016109b6565b9350506040610afa87828801610a2d565b9250506060610b0b87828801610a63565b91505092959194509250565b600060208284031215610b2d57610b2c610894565b5b6000610b3b84828501610a63565b91505092915050565b600081519050919050565b600082825260208201905092915050565b60005b83811015610b7e578082015181840152602081019050610b63565b83811115610b8d576000848401525b50505050565b6000610b9e82610b44565b610ba88185610b4f565b9350610bb8818560208601610b60565b610bc1816108a8565b840191505092915050565b610bd581610a42565b82525050565b60006080820190508181036000830152610bf58187610b93565b90508181036020830152610c098186610b93565b9050610c186040830185610bcc565b610c256060830184610bcc565b95945050505050565b60008060408385031215610c4557610c44610894565b5b6000610c5385828601610a63565b9250506020610c6485828601610a63565b9150509250929050565b610c7781610a04565b82525050565b6000606082019050610c926000830186610bcc565b610c9f6020830185610c6e565b610cac6040830184610bcc565b949350505050565b600060c082019050610cc96000830189610bcc565b610cd66020830188610bcc565b610ce36040830187610bcc565b610cf06060830186610c6e565b8181036080830152610d028185610b93565b905081810360a0830152610d168184610b93565b9050979650505050505050565b7f4e487b7100000000000000000000000000000000000000000000000000000000600052601160045260246000fd5b6000610d5d82610a42565b9150610d6883610a42565b9250827fffffffffffffffffffffffffffffffffffffffffffffffffffffffffffffffff03821115610d9d57610d9c610d23565b5b828201905092915050565b6000610db382610a42565b9150610dbe83610a42565b925082821015610dd157610dd0610d23565b5b828203905092915050565b7f4e487b7100000000000000000000000000000000000000000000000000000000600052603260045260246000fd5b7f4e487b7100000000000000000000000000000000000000000000000000000000600052602260045260246000fd5b60006002820490506001821680610e5257607f821691505b60208210811415610e6657610e65610e0b565b5b5091905056fea26469706673582212202fab27da26c50e61b4649dbcb9084e9942a78456289737e15cd16b43081c77fc64736f6c634300080b0033",
  "immutableReferences": {},
  "source": "// SPDX-License-Identifier: MIT\r\npragma solidity >=0.4.22 <0.9.0;\r\n\r\ncontract crowdFund{\r\n    uint id = 0;\r\n    struct Transaction{\r\n        uint fund_id;\r\n        address giver;\r\n        uint amount;\r\n    }\r\n    struct donation{\r\n        uint fund_id;\r\n        uint amount;\r\n        uint amount_got;\r\n        address aggregator;\r\n        string title;\r\n        string details;\r\n    }\r\n    donation[] public donations;\r\n    Transaction[] public  transactions;\r\n\r\n    function setDonations(string memory _title, string memory _details, address _address, uint _amount) public {\r\n        donation memory Donation;\r\n        Donation.fund_id = id+1;\r\n        Donation.amount = _amount;\r\n        Donation.amount_got = 0;\r\n        Donation.aggregator = _address;\r\n        Donation.title = _title;\r\n        Donation.details = _details;\r\n        donations.push(Donation);\r\n        id+=1;\r\n    }\r\n\r\n    function getDonations(uint _index) public view returns (string memory title, string memory details, uint amount,uint amount_got) {\r\n        donation storage Donation = donations[_index-1];\r\n        return (Donation.title, Donation.details ,Donation.amount, Donation.amount_got);\r\n    }\r\n\r\n    function sendDonations(uint _index, uint _amount) public {\r\n        donation storage Donation = donations[_index-1];\r\n        payable(Donation.aggregator).transfer(_amount);\r\n        Transaction memory transaction;\r\n        transaction.fund_id = Donation.fund_id;\r\n        transaction.giver = msg.sender;\r\n        transaction.amount = _amount;\r\n        transactions.push(transaction);\r\n    }\r\n\r\n\r\n}",
  "sourcePath": "D:\\college\\projects\\crowdfund solidity web3\\contracts\\crowdFund.sol",
  "compiler": {
    "name": "solc",
    "version": "0.8.11+commit.d7f03943.Emscripten.clang"
  },
  "schemaVersion": "3.4.4",
  "updatedAt": "2022-01-31T10:14:22.944Z",
  "networkType": "ethereum",
  "devdoc": {
    "kind": "dev",
    "methods": {},
    "version": 1
  },
  "userdoc": {
    "kind": "user",
    "methods": {},
    "version": 1
  }
}