{
  "contractName": "crowdFund",
  "abi": [
    {
      "inputs": [
        {
          "internalType": "uint256",
          "name": "",
          "type": "uint256"
        }
      ],
      "name": "donations",
      "outputs": [
        {
          "internalType": "uint256",
          "name": "fund_id",
          "type": "uint256"
        },
        {
          "internalType": "uint256",
          "name": "amount",
          "type": "uint256"
        },
        {
          "internalType": "uint256",
          "name": "amount_got",
          "type": "uint256"
        },
        {
          "internalType": "address",
          "name": "aggregator",
          "type": "address"
        },
        {
          "internalType": "string",
          "name": "title",
          "type": "string"
        },
        {
          "internalType": "string",
          "name": "details",
          "type": "string"
        }
      ],
      "stateMutability": "view",
      "type": "function"
    },
    {
      "inputs": [
        {
          "internalType": "string",
          "name": "_title",
          "type": "string"
        },
        {
          "internalType": "string",
          "name": "_details",
          "type": "string"
        },
        {
          "internalType": "address",
          "name": "_address",
          "type": "address"
        },
        {
          "internalType": "uint256",
          "name": "_amount",
          "type": "uint256"
        }
      ],
      "name": "setDonations",
      "outputs": [],
      "stateMutability": "nonpayable",
      "type": "function"
    },
    {
      "inputs": [
        {
          "internalType": "uint256",
          "name": "_index",
          "type": "uint256"
        }
      ],
      "name": "getDonations",
      "outputs": [
        {
          "internalType": "string",
          "name": "title",
          "type": "string"
        },
        {
          "internalType": "string",
          "name": "details",
          "type": "string"
        },
        {
          "internalType": "uint256",
          "name": "amount",
          "type": "uint256"
        },
        {
          "internalType": "uint256",
          "name": "amount_got",
          "type": "uint256"
        }
      ],
      "stateMutability": "view",
      "type": "function"
    },
    {
      "inputs": [
        {
          "internalType": "uint256",
          "name": "_index",
          "type": "uint256"
        }
      ],
      "name": "sendBal",
      "outputs": [],
      "stateMutability": "payable",
      "type": "function"
    }
  ],
  "bytecode": "0x60806040526000805534801561001457600080fd5b50610e0f806100246000396000f3fe60806040526004361061003f5760003560e01c80630179b81e146100445780634088c6fb1461006d578063596d9ce214610089578063f8626af8146100c9575b600080fd5b34801561005057600080fd5b5061006b60048036038101906100669190610a90565b61010b565b005b61008760048036038101906100829190610b2f565b6102a5565b005b34801561009557600080fd5b506100b060048036038101906100ab9190610b2f565b6103eb565b6040516100c09493929190610bf3565b60405180910390f35b3480156100d557600080fd5b506100f060048036038101906100eb9190610b2f565b610551565b60405161010296959493929190610c55565b60405180910390f35b6101136106cd565b60005481600001818152505081816020018181525050600081604001818152505082816060019073ffffffffffffffffffffffffffffffffffffffff16908173ffffffffffffffffffffffffffffffffffffffff1681525050848160800181905250838160a00181905250600181908060018154018082558091505060019003906000526020600020906008020160009091909190915060008201518160000155602082015181600101556040820151816002015560608201518160030160006101000a81548173ffffffffffffffffffffffffffffffffffffffff021916908373ffffffffffffffffffffffffffffffffffffffff160217905550608082015181600401908051906020019061022b929190610728565b5060a0820151816005019080519060200190610248929190610728565b5060c08201518160060190805190602001906102659291906107ae565b5060e0820151816007019080519060200190610282929190610838565b50505060016000808282546102979190610cf3565b925050819055505050505050565b60003490506000600183815481106102c0576102bf610d49565b5b906000526020600020906008020190508060030160009054906101000a900473ffffffffffffffffffffffffffffffffffffffff1673ffffffffffffffffffffffffffffffffffffffff166108fc839081150290604051600060405180830381858888f1935050505015801561033a573d6000803e3d6000fd5b508181600201600082825461034f9190610cf3565b9250508190555080600601339080600181540180825580915050600190039060005260206000200160009091909190916101000a81548173ffffffffffffffffffffffffffffffffffffffff021916908373ffffffffffffffffffffffffffffffffffffffff16021790555080600701829080600181540180825580915050600190039060005260206000200160009091909190915055505050565b60608060008060006001868154811061040757610406610d49565b5b9060005260206000209060080201905080600401816005018260010154836002015483805461043590610da7565b80601f016020809104026020016040519081016040528092919081815260200182805461046190610da7565b80156104ae5780601f10610483576101008083540402835291602001916104ae565b820191906000526020600020905b81548152906001019060200180831161049157829003601f168201915b505050505093508280546104c190610da7565b80601f01602080910402602001604051908101604052809291908181526020018280546104ed90610da7565b801561053a5780601f1061050f5761010080835404028352916020019161053a565b820191906000526020600020905b81548152906001019060200180831161051d57829003601f168201915b505050505092509450945094509450509193509193565b6001818154811061056157600080fd5b90600052602060002090600802016000915090508060000154908060010154908060020154908060030160009054906101000a900473ffffffffffffffffffffffffffffffffffffffff16908060040180546105bc90610da7565b80601f01602080910402602001604051908101604052809291908181526020018280546105e890610da7565b80156106355780601f1061060a57610100808354040283529160200191610635565b820191906000526020600020905b81548152906001019060200180831161061857829003601f168201915b50505050509080600501805461064a90610da7565b80601f016020809104026020016040519081016040528092919081815260200182805461067690610da7565b80156106c35780601f10610698576101008083540402835291602001916106c3565b820191906000526020600020905b8154815290600101906020018083116106a657829003601f168201915b5050505050905086565b604051806101000160405280600081526020016000815260200160008152602001600073ffffffffffffffffffffffffffffffffffffffff168152602001606081526020016060815260200160608152602001606081525090565b82805461073490610da7565b90600052602060002090601f016020900481019282610756576000855561079d565b82601f1061076f57805160ff191683800117855561079d565b8280016001018555821561079d579182015b8281111561079c578251825591602001919060010190610781565b5b5090506107aa9190610885565b5090565b828054828255906000526020600020908101928215610827579160200282015b828111156108265782518260006101000a81548173ffffffffffffffffffffffffffffffffffffffff021916908373ffffffffffffffffffffffffffffffffffffffff160217905550916020019190600101906107ce565b5b5090506108349190610885565b5090565b828054828255906000526020600020908101928215610874579160200282015b82811115610873578251825591602001919060010190610858565b5b5090506108819190610885565b5090565b5b8082111561089e576000816000905550600101610886565b5090565b6000604051905090565b600080fd5b600080fd5b600080fd5b600080fd5b6000601f19601f8301169050919050565b7f4e487b7100000000000000000000000000000000000000000000000000000000600052604160045260246000fd5b610909826108c0565b810181811067ffffffffffffffff82111715610928576109276108d1565b5b80604052505050565b600061093b6108a2565b90506109478282610900565b919050565b600067ffffffffffffffff821115610967576109666108d1565b5b610970826108c0565b9050602081019050919050565b82818337600083830152505050565b600061099f61099a8461094c565b610931565b9050828152602081018484840111156109bb576109ba6108bb565b5b6109c684828561097d565b509392505050565b600082601f8301126109e3576109e26108b6565b5b81356109f384826020860161098c565b91505092915050565b600073ffffffffffffffffffffffffffffffffffffffff82169050919050565b6000610a27826109fc565b9050919050565b610a3781610a1c565b8114610a4257600080fd5b50565b600081359050610a5481610a2e565b92915050565b6000819050919050565b610a6d81610a5a565b8114610a7857600080fd5b50565b600081359050610a8a81610a64565b92915050565b60008060008060808587031215610aaa57610aa96108ac565b5b600085013567ffffffffffffffff811115610ac857610ac76108b1565b5b610ad4878288016109ce565b945050602085013567ffffffffffffffff811115610af557610af46108b1565b5b610b01878288016109ce565b9350506040610b1287828801610a45565b9250506060610b2387828801610a7b565b91505092959194509250565b600060208284031215610b4557610b446108ac565b5b6000610b5384828501610a7b565b91505092915050565b600081519050919050565b600082825260208201905092915050565b60005b83811015610b96578082015181840152602081019050610b7b565b83811115610ba5576000848401525b50505050565b6000610bb682610b5c565b610bc08185610b67565b9350610bd0818560208601610b78565b610bd9816108c0565b840191505092915050565b610bed81610a5a565b82525050565b60006080820190508181036000830152610c0d8187610bab565b90508181036020830152610c218186610bab565b9050610c306040830185610be4565b610c3d6060830184610be4565b95945050505050565b610c4f81610a1c565b82525050565b600060c082019050610c6a6000830189610be4565b610c776020830188610be4565b610c846040830187610be4565b610c916060830186610c46565b8181036080830152610ca38185610bab565b905081810360a0830152610cb78184610bab565b9050979650505050505050565b7f4e487b7100000000000000000000000000000000000000000000000000000000600052601160045260246000fd5b6000610cfe82610a5a565b9150610d0983610a5a565b9250827fffffffffffffffffffffffffffffffffffffffffffffffffffffffffffffffff03821115610d3e57610d3d610cc4565b5b828201905092915050565b7f4e487b7100000000000000000000000000000000000000000000000000000000600052603260045260246000fd5b7f4e487b7100000000000000000000000000000000000000000000000000000000600052602260045260246000fd5b60006002820490506001821680610dbf57607f821691505b60208210811415610dd357610dd2610d78565b5b5091905056fea26469706673582212207d1ba4bbe6b544a2352a523f34f1585633846a4625bc0123c6870bec05f925f764736f6c634300080b0033",
  "immutableReferences": {},
  "source": "// SPDX-License-Identifier: MIT\r\npragma solidity >=0.4.22 <0.9.0;\r\n\r\ncontract crowdFund{\r\n    uint id = 0;\r\n    struct donation{\r\n        uint fund_id;\r\n        uint amount;\r\n        uint amount_got;\r\n        address aggregator;\r\n        string title;\r\n        string details;\r\n        address[] givers;\r\n        uint[] amount_given;\r\n    }\r\n    donation[] public donations;\r\n\r\n    function setDonations(string memory _title, string memory _details, address _address, uint _amount) public {\r\n        donation memory Donation;\r\n        Donation.fund_id = id;\r\n        Donation.amount = _amount;\r\n        Donation.amount_got = 0;\r\n        Donation.aggregator = _address;\r\n        Donation.title = _title;\r\n        Donation.details = _details;\r\n        donations.push(Donation);\r\n        id+=1;\r\n    }\r\n\r\n    function getDonations(uint _index) public view returns (string memory title, string memory details, uint amount,uint amount_got) {\r\n        donation storage Donation = donations[_index];\r\n        return (Donation.title, Donation.details , Donation.amount, Donation.amount_got);\r\n    }\r\n\r\n    function sendBal(uint _index) payable public {\r\n        uint amount = msg.value;\r\n        donation storage Donation = donations[_index];\r\n        payable(Donation.aggregator).transfer(amount);\r\n        Donation.amount_got+=amount;\r\n        Donation.givers.push(msg.sender);\r\n        Donation.amount_given.push(amount);\r\n    }\r\n\r\n\r\n}",
  "sourcePath": "D:\\college\\projects\\crowdfund solidity web3\\contracts\\crowdFund.sol",
  "compiler": {
    "name": "solc",
    "version": "0.8.11+commit.d7f03943.Emscripten.clang"
  },
  "schemaVersion": "3.4.4",
  "updatedAt": "2022-01-31T17:39:35.018Z",
  "devdoc": {
    "kind": "dev",
    "methods": {},
    "version": 1
  },
  "userdoc": {
    "kind": "user",
    "methods": {},
    "version": 1
  }
}