{
  "contractName": "crowdFund",
  "abi": [
    {
      "inputs": [
        {
          "internalType": "uint256",
          "name": "",
          "type": "uint256"
        }
      ],
      "name": "donations",
      "outputs": [
        {
          "internalType": "uint256",
          "name": "fund_id",
          "type": "uint256"
        },
        {
          "internalType": "uint256",
          "name": "amount",
          "type": "uint256"
        },
        {
          "internalType": "uint256",
          "name": "amount_got",
          "type": "uint256"
        },
        {
          "internalType": "address",
          "name": "aggregator",
          "type": "address"
        },
        {
          "internalType": "string",
          "name": "title",
          "type": "string"
        },
        {
          "internalType": "string",
          "name": "details",
          "type": "string"
        }
      ],
      "stateMutability": "view",
      "type": "function"
    },
    {
      "inputs": [
        {
          "internalType": "uint256",
          "name": "",
          "type": "uint256"
        }
      ],
      "name": "transactions",
      "outputs": [
        {
          "internalType": "uint256",
          "name": "fund_id",
          "type": "uint256"
        },
        {
          "internalType": "address",
          "name": "giver",
          "type": "address"
        },
        {
          "internalType": "uint256",
          "name": "amount",
          "type": "uint256"
        }
      ],
      "stateMutability": "view",
      "type": "function"
    },
    {
      "inputs": [
        {
          "internalType": "string",
          "name": "_title",
          "type": "string"
        },
        {
          "internalType": "string",
          "name": "_details",
          "type": "string"
        },
        {
          "internalType": "address",
          "name": "_address",
          "type": "address"
        },
        {
          "internalType": "uint256",
          "name": "_amount",
          "type": "uint256"
        }
      ],
      "name": "setDonations",
      "outputs": [],
      "stateMutability": "nonpayable",
      "type": "function"
    },
    {
      "inputs": [
        {
          "internalType": "uint256",
          "name": "_index",
          "type": "uint256"
        }
      ],
      "name": "getDonations",
      "outputs": [
        {
          "internalType": "string",
          "name": "title",
          "type": "string"
        },
        {
          "internalType": "string",
          "name": "details",
          "type": "string"
        },
        {
          "internalType": "uint256",
          "name": "amount",
          "type": "uint256"
        },
        {
          "internalType": "uint256",
          "name": "amount_got",
          "type": "uint256"
        }
      ],
      "stateMutability": "view",
      "type": "function"
    },
    {
      "inputs": [
        {
          "internalType": "uint256",
          "name": "_index",
          "type": "uint256"
        }
      ],
      "name": "sendBal",
      "outputs": [],
      "stateMutability": "payable",
      "type": "function"
    }
  ],
  "bytecode": "0x60806040526000805534801561001457600080fd5b50610e53806100246000396000f3fe60806040526004361061004a5760003560e01c80630179b81e1461004f5780634088c6fb14610078578063596d9ce2146100945780639ace38c2146100d4578063f8626af814610113575b600080fd5b34801561005b57600080fd5b5061007660048036038101906100719190610a9d565b610155565b005b610092600480360381019061008d9190610b3c565b6102b5565b005b3480156100a057600080fd5b506100bb60048036038101906100b69190610b3c565b61044d565b6040516100cb9493929190610c00565b60405180910390f35b3480156100e057600080fd5b506100fb60048036038101906100f69190610b3c565b6105b3565b60405161010a93929190610c62565b60405180910390f35b34801561011f57600080fd5b5061013a60048036038101906101359190610b3c565b61060d565b60405161014c96959493929190610c99565b60405180910390f35b61015d610789565b60005481600001818152505081816020018181525050600081604001818152505082816060019073ffffffffffffffffffffffffffffffffffffffff16908173ffffffffffffffffffffffffffffffffffffffff1681525050848160800181905250838160a00181905250600181908060018154018082558091505060019003906000526020600020906006020160009091909190915060008201518160000155602082015181600101556040820151816002015560608201518160030160006101000a81548173ffffffffffffffffffffffffffffffffffffffff021916908373ffffffffffffffffffffffffffffffffffffffff16021790555060808201518160040190805190602001906102759291906107d5565b5060a08201518160050190805190602001906102929291906107d5565b50505060016000808282546102a79190610d37565b925050819055505050505050565b60003490506000600183815481106102d0576102cf610d8d565b5b906000526020600020906006020190508060030160009054906101000a900473ffffffffffffffffffffffffffffffffffffffff1673ffffffffffffffffffffffffffffffffffffffff166108fc839081150290604051600060405180830381858888f1935050505015801561034a573d6000803e3d6000fd5b508181600201600082825461035f9190610d37565b9250508190555061036e61085b565b816000015481600001818152505033816020019073ffffffffffffffffffffffffffffffffffffffff16908173ffffffffffffffffffffffffffffffffffffffff16815250508281604001818152505060028190806001815401808255809150506001900390600052602060002090600302016000909190919091506000820151816000015560208201518160010160006101000a81548173ffffffffffffffffffffffffffffffffffffffff021916908373ffffffffffffffffffffffffffffffffffffffff16021790555060408201518160020155505050505050565b60608060008060006001868154811061046957610468610d8d565b5b9060005260206000209060060201905080600401816005018260010154836002015483805461049790610deb565b80601f01602080910402602001604051908101604052809291908181526020018280546104c390610deb565b80156105105780601f106104e557610100808354040283529160200191610510565b820191906000526020600020905b8154815290600101906020018083116104f357829003601f168201915b5050505050935082805461052390610deb565b80601f016020809104026020016040519081016040528092919081815260200182805461054f90610deb565b801561059c5780601f106105715761010080835404028352916020019161059c565b820191906000526020600020905b81548152906001019060200180831161057f57829003601f168201915b505050505092509450945094509450509193509193565b600281815481106105c357600080fd5b90600052602060002090600302016000915090508060000154908060010160009054906101000a900473ffffffffffffffffffffffffffffffffffffffff16908060020154905083565b6001818154811061061d57600080fd5b90600052602060002090600602016000915090508060000154908060010154908060020154908060030160009054906101000a900473ffffffffffffffffffffffffffffffffffffffff169080600401805461067890610deb565b80601f01602080910402602001604051908101604052809291908181526020018280546106a490610deb565b80156106f15780601f106106c6576101008083540402835291602001916106f1565b820191906000526020600020905b8154815290600101906020018083116106d457829003601f168201915b50505050509080600501805461070690610deb565b80601f016020809104026020016040519081016040528092919081815260200182805461073290610deb565b801561077f5780601f106107545761010080835404028352916020019161077f565b820191906000526020600020905b81548152906001019060200180831161076257829003601f168201915b5050505050905086565b6040518060c00160405280600081526020016000815260200160008152602001600073ffffffffffffffffffffffffffffffffffffffff16815260200160608152602001606081525090565b8280546107e190610deb565b90600052602060002090601f016020900481019282610803576000855561084a565b82601f1061081c57805160ff191683800117855561084a565b8280016001018555821561084a579182015b8281111561084957825182559160200191906001019061082e565b5b5090506108579190610892565b5090565b604051806060016040528060008152602001600073ffffffffffffffffffffffffffffffffffffffff168152602001600081525090565b5b808211156108ab576000816000905550600101610893565b5090565b6000604051905090565b600080fd5b600080fd5b600080fd5b600080fd5b6000601f19601f8301169050919050565b7f4e487b7100000000000000000000000000000000000000000000000000000000600052604160045260246000fd5b610916826108cd565b810181811067ffffffffffffffff82111715610935576109346108de565b5b80604052505050565b60006109486108af565b9050610954828261090d565b919050565b600067ffffffffffffffff821115610974576109736108de565b5b61097d826108cd565b9050602081019050919050565b82818337600083830152505050565b60006109ac6109a784610959565b61093e565b9050828152602081018484840111156109c8576109c76108c8565b5b6109d384828561098a565b509392505050565b600082601f8301126109f0576109ef6108c3565b5b8135610a00848260208601610999565b91505092915050565b600073ffffffffffffffffffffffffffffffffffffffff82169050919050565b6000610a3482610a09565b9050919050565b610a4481610a29565b8114610a4f57600080fd5b50565b600081359050610a6181610a3b565b92915050565b6000819050919050565b610a7a81610a67565b8114610a8557600080fd5b50565b600081359050610a9781610a71565b92915050565b60008060008060808587031215610ab757610ab66108b9565b5b600085013567ffffffffffffffff811115610ad557610ad46108be565b5b610ae1878288016109db565b945050602085013567ffffffffffffffff811115610b0257610b016108be565b5b610b0e878288016109db565b9350506040610b1f87828801610a52565b9250506060610b3087828801610a88565b91505092959194509250565b600060208284031215610b5257610b516108b9565b5b6000610b6084828501610a88565b91505092915050565b600081519050919050565b600082825260208201905092915050565b60005b83811015610ba3578082015181840152602081019050610b88565b83811115610bb2576000848401525b50505050565b6000610bc382610b69565b610bcd8185610b74565b9350610bdd818560208601610b85565b610be6816108cd565b840191505092915050565b610bfa81610a67565b82525050565b60006080820190508181036000830152610c1a8187610bb8565b90508181036020830152610c2e8186610bb8565b9050610c3d6040830185610bf1565b610c4a6060830184610bf1565b95945050505050565b610c5c81610a29565b82525050565b6000606082019050610c776000830186610bf1565b610c846020830185610c53565b610c916040830184610bf1565b949350505050565b600060c082019050610cae6000830189610bf1565b610cbb6020830188610bf1565b610cc86040830187610bf1565b610cd56060830186610c53565b8181036080830152610ce78185610bb8565b905081810360a0830152610cfb8184610bb8565b9050979650505050505050565b7f4e487b7100000000000000000000000000000000000000000000000000000000600052601160045260246000fd5b6000610d4282610a67565b9150610d4d83610a67565b9250827fffffffffffffffffffffffffffffffffffffffffffffffffffffffffffffffff03821115610d8257610d81610d08565b5b828201905092915050565b7f4e487b7100000000000000000000000000000000000000000000000000000000600052603260045260246000fd5b7f4e487b7100000000000000000000000000000000000000000000000000000000600052602260045260246000fd5b60006002820490506001821680610e0357607f821691505b60208210811415610e1757610e16610dbc565b5b5091905056fea2646970667358221220ff47259af8227581f8575f1cd4d3dba6421be0a06b016b529fb9a7a328e10d9164736f6c634300080b0033",
  "immutableReferences": {},
  "source": "// SPDX-License-Identifier: MIT\r\npragma solidity >=0.4.22 <0.9.0;\r\n\r\ncontract crowdFund{\r\n    uint id = 0;\r\n    struct Transaction{\r\n        uint fund_id;\r\n        address giver;\r\n        uint amount;\r\n    }\r\n    struct donation{\r\n        uint fund_id;\r\n        uint amount;\r\n        uint amount_got;\r\n        address aggregator;\r\n        string title;\r\n        string details;\r\n    }\r\n    donation[] public donations;\r\n    Transaction[] public  transactions;\r\n\r\n    function setDonations(string memory _title, string memory _details, address _address, uint _amount) public {\r\n        donation memory Donation;\r\n        Donation.fund_id = id;\r\n        Donation.amount = _amount;\r\n        Donation.amount_got = 0;\r\n        Donation.aggregator = _address;\r\n        Donation.title = _title;\r\n        Donation.details = _details;\r\n        donations.push(Donation);\r\n        id+=1;\r\n    }\r\n\r\n    function getDonations(uint _index) public view returns (string memory title, string memory details, uint amount,uint amount_got) {\r\n        donation storage Donation = donations[_index];\r\n        return (Donation.title, Donation.details ,Donation.amount, Donation.amount_got);\r\n    }\r\n\r\n    function sendBal(uint _index) payable public {\r\n        uint amount = msg.value;\r\n        donation storage Donation = donations[_index];\r\n        payable(Donation.aggregator).transfer(amount);\r\n        Donation.amount_got+=amount;\r\n        Transaction memory transaction;\r\n        transaction.fund_id = Donation.fund_id;\r\n        transaction.giver = msg.sender;\r\n        transaction.amount = amount;\r\n        transactions.push(transaction);\r\n    }\r\n\r\n\r\n}",
  "sourcePath": "D:\\college\\projects\\crowdfund solidity web3\\contracts\\crowdFund.sol",
  "compiler": {
    "name": "solc",
    "version": "0.8.11+commit.d7f03943.Emscripten.clang"
  },
  "schemaVersion": "3.4.4",
  "updatedAt": "2022-01-31T11:56:54.130Z",
  "devdoc": {
    "kind": "dev",
    "methods": {},
    "version": 1
  },
  "userdoc": {
    "kind": "user",
    "methods": {},
    "version": 1
  }
}