{
  "contractName": "crowdFund",
  "abi": [
    {
      "inputs": [],
      "stateMutability": "nonpayable",
      "type": "constructor"
    },
    {
      "inputs": [
        {
          "internalType": "uint256",
          "name": "",
          "type": "uint256"
        }
      ],
      "name": "donations",
      "outputs": [
        {
          "internalType": "uint256",
          "name": "fund_id",
          "type": "uint256"
        },
        {
          "internalType": "uint256",
          "name": "amount",
          "type": "uint256"
        },
        {
          "internalType": "uint256",
          "name": "amount_got",
          "type": "uint256"
        },
        {
          "internalType": "address",
          "name": "aggregator",
          "type": "address"
        },
        {
          "internalType": "string",
          "name": "details",
          "type": "string"
        }
      ],
      "stateMutability": "view",
      "type": "function"
    },
    {
      "inputs": [
        {
          "internalType": "uint256",
          "name": "",
          "type": "uint256"
        }
      ],
      "name": "transactions",
      "outputs": [
        {
          "internalType": "uint256",
          "name": "fund_id",
          "type": "uint256"
        },
        {
          "internalType": "address",
          "name": "giver",
          "type": "address"
        },
        {
          "internalType": "uint256",
          "name": "amount",
          "type": "uint256"
        }
      ],
      "stateMutability": "view",
      "type": "function"
    },
    {
      "inputs": [
        {
          "internalType": "address",
          "name": "_address",
          "type": "address"
        },
        {
          "internalType": "uint256",
          "name": "_amount",
          "type": "uint256"
        },
        {
          "internalType": "string",
          "name": "_details",
          "type": "string"
        }
      ],
      "name": "setDonations",
      "outputs": [],
      "stateMutability": "nonpayable",
      "type": "function"
    },
    {
      "inputs": [
        {
          "internalType": "uint256",
          "name": "_index",
          "type": "uint256"
        }
      ],
      "name": "getDonations",
      "outputs": [
        {
          "internalType": "uint256",
          "name": "amount",
          "type": "uint256"
        },
        {
          "internalType": "uint256",
          "name": "amount_got",
          "type": "uint256"
        },
        {
          "internalType": "string",
          "name": "details",
          "type": "string"
        }
      ],
      "stateMutability": "view",
      "type": "function"
    }
  ],
  "bytecode": "0x60806040526000805534801561001457600080fd5b5033600160006101000a81548173ffffffffffffffffffffffffffffffffffffffff021916908373ffffffffffffffffffffffffffffffffffffffff160217905550610abe806100656000396000f3fe608060405234801561001057600080fd5b506004361061004c5760003560e01c80634a8ab5a614610051578063596d9ce21461006d5780639ace38c21461009f578063f8626af8146100d1575b600080fd5b61006b6004803603810190610066919061072e565b610105565b005b6100876004803603810190610082919061079d565b610231565b60405161009693929190610861565b60405180910390f35b6100b960048036038101906100b4919061079d565b610310565b6040516100c8939291906108ae565b60405180910390f35b6100eb60048036038101906100e6919061079d565b61036a565b6040516100fc9594939291906108e5565b60405180910390f35b61010d610458565b600160005461011c919061096e565b81600001818152505082816020018181525050600081604001818152505083816060019073ffffffffffffffffffffffffffffffffffffffff16908173ffffffffffffffffffffffffffffffffffffffff1681525050818160800181905250600281908060018154018082558091505060019003906000526020600020906005020160009091909190915060008201518160000155602082015181600101556040820151816002015560608201518160030160006101000a81548173ffffffffffffffffffffffffffffffffffffffff021916908373ffffffffffffffffffffffffffffffffffffffff160217905550608082015181600401908051906020019061022892919061049d565b50505050505050565b60008060606000600260018661024791906109c4565b81548110610258576102576109f8565b5b90600052602060002090600502019050806001015481600201548260040180805461028290610a56565b80601f01602080910402602001604051908101604052809291908181526020018280546102ae90610a56565b80156102fb5780601f106102d0576101008083540402835291602001916102fb565b820191906000526020600020905b8154815290600101906020018083116102de57829003601f168201915b50505050509050935093509350509193909250565b6003818154811061032057600080fd5b90600052602060002090600302016000915090508060000154908060010160009054906101000a900473ffffffffffffffffffffffffffffffffffffffff16908060020154905083565b6002818154811061037a57600080fd5b90600052602060002090600502016000915090508060000154908060010154908060020154908060030160009054906101000a900473ffffffffffffffffffffffffffffffffffffffff16908060040180546103d590610a56565b80601f016020809104026020016040519081016040528092919081815260200182805461040190610a56565b801561044e5780601f106104235761010080835404028352916020019161044e565b820191906000526020600020905b81548152906001019060200180831161043157829003601f168201915b5050505050905085565b6040518060a00160405280600081526020016000815260200160008152602001600073ffffffffffffffffffffffffffffffffffffffff168152602001606081525090565b8280546104a990610a56565b90600052602060002090601f0160209004810192826104cb5760008555610512565b82601f106104e457805160ff1916838001178555610512565b82800160010185558215610512579182015b828111156105115782518255916020019190600101906104f6565b5b50905061051f9190610523565b5090565b5b8082111561053c576000816000905550600101610524565b5090565b6000604051905090565b600080fd5b600080fd5b600073ffffffffffffffffffffffffffffffffffffffff82169050919050565b600061057f82610554565b9050919050565b61058f81610574565b811461059a57600080fd5b50565b6000813590506105ac81610586565b92915050565b6000819050919050565b6105c5816105b2565b81146105d057600080fd5b50565b6000813590506105e2816105bc565b92915050565b600080fd5b600080fd5b6000601f19601f8301169050919050565b7f4e487b7100000000000000000000000000000000000000000000000000000000600052604160045260246000fd5b61063b826105f2565b810181811067ffffffffffffffff8211171561065a57610659610603565b5b80604052505050565b600061066d610540565b90506106798282610632565b919050565b600067ffffffffffffffff82111561069957610698610603565b5b6106a2826105f2565b9050602081019050919050565b82818337600083830152505050565b60006106d16106cc8461067e565b610663565b9050828152602081018484840111156106ed576106ec6105ed565b5b6106f88482856106af565b509392505050565b600082601f830112610715576107146105e8565b5b81356107258482602086016106be565b91505092915050565b6000806000606084860312156107475761074661054a565b5b60006107558682870161059d565b9350506020610766868287016105d3565b925050604084013567ffffffffffffffff8111156107875761078661054f565b5b61079386828701610700565b9150509250925092565b6000602082840312156107b3576107b261054a565b5b60006107c1848285016105d3565b91505092915050565b6107d3816105b2565b82525050565b600081519050919050565b600082825260208201905092915050565b60005b838110156108135780820151818401526020810190506107f8565b83811115610822576000848401525b50505050565b6000610833826107d9565b61083d81856107e4565b935061084d8185602086016107f5565b610856816105f2565b840191505092915050565b600060608201905061087660008301866107ca565b61088360208301856107ca565b81810360408301526108958184610828565b9050949350505050565b6108a881610574565b82525050565b60006060820190506108c360008301866107ca565b6108d0602083018561089f565b6108dd60408301846107ca565b949350505050565b600060a0820190506108fa60008301886107ca565b61090760208301876107ca565b61091460408301866107ca565b610921606083018561089f565b81810360808301526109338184610828565b90509695505050505050565b7f4e487b7100000000000000000000000000000000000000000000000000000000600052601160045260246000fd5b6000610979826105b2565b9150610984836105b2565b9250827fffffffffffffffffffffffffffffffffffffffffffffffffffffffffffffffff038211156109b9576109b861093f565b5b828201905092915050565b60006109cf826105b2565b91506109da836105b2565b9250828210156109ed576109ec61093f565b5b828203905092915050565b7f4e487b7100000000000000000000000000000000000000000000000000000000600052603260045260246000fd5b7f4e487b7100000000000000000000000000000000000000000000000000000000600052602260045260246000fd5b60006002820490506001821680610a6e57607f821691505b60208210811415610a8257610a81610a27565b5b5091905056fea26469706673582212208954ab240803e41ec1e85dd846ecbefe2c8f1b7a85bc86b47989b317cf1cd4a464736f6c634300080b0033",
  "immutableReferences": {},
  "source": "// SPDX-License-Identifier: MIT\r\npragma solidity >=0.4.22 <0.9.0;\r\n\r\ncontract crowdFund{\r\n    uint id = 0;\r\n    address owner;\r\n    constructor() {\r\n        owner = msg.sender;\r\n    }\r\n    struct Transaction{\r\n        uint fund_id;\r\n        address giver;\r\n        uint amount;\r\n    }\r\n    struct donation{\r\n        uint fund_id;\r\n        uint amount;\r\n        uint amount_got;\r\n        address aggregator;\r\n        string details;\r\n    }\r\n    donation[] public donations;\r\n    Transaction[] public  transactions;\r\n\r\n    function setDonations(address _address, uint _amount, string memory _details) public {\r\n        donation memory Donation;\r\n        Donation.fund_id = id+1;\r\n        Donation.amount = _amount;\r\n        Donation.amount_got = 0;\r\n        Donation.aggregator = _address;\r\n        Donation.details = _details;\r\n        donations.push(Donation);\r\n    }\r\n\r\n    function getDonations(uint _index) public view returns (uint amount,uint amount_got, string memory details) {\r\n        donation storage Donation = donations[_index-1];\r\n        return (Donation.amount, Donation.amount_got, Donation.details);\r\n    }\r\n}",
  "sourcePath": "D:\\college\\projects\\crowdfund solidity web3\\contracts\\crowdFund.sol",
  "compiler": {
    "name": "solc",
    "version": "0.8.11+commit.d7f03943.Emscripten.clang"
  },
  "schemaVersion": "3.4.4",
  "updatedAt": "2022-01-31T09:37:20.676Z",
  "devdoc": {
    "kind": "dev",
    "methods": {},
    "version": 1
  },
  "userdoc": {
    "kind": "user",
    "methods": {},
    "version": 1
  }
}